{
  "_format": "hh-sol-artifact-1",
  "contractName": "Monopoly",
  "sourceName": "contracts/Monopoly.sol",
  "abi": [
    {
      "inputs": [],
      "stateMutability": "nonpayable",
      "type": "constructor"
    },
    {
      "anonymous": false,
      "inputs": [
        {
          "indexed": true,
          "internalType": "uint256",
          "name": "player",
          "type": "uint256"
        },
        {
          "indexed": true,
          "internalType": "uint256",
          "name": "Posistion",
          "type": "uint256"
        }
      ],
      "name": "Bought",
      "type": "event"
    },
    {
      "anonymous": false,
      "inputs": [
        {
          "indexed": false,
          "internalType": "string",
          "name": "str",
          "type": "string"
        }
      ],
      "name": "CreateGame",
      "type": "event"
    },
    {
      "anonymous": false,
      "inputs": [
        {
          "indexed": false,
          "internalType": "uint256",
          "name": "str",
          "type": "uint256"
        }
      ],
      "name": "Event",
      "type": "event"
    },
    {
      "anonymous": false,
      "inputs": [
        {
          "indexed": true,
          "internalType": "uint256",
          "name": "amount",
          "type": "uint256"
        },
        {
          "indexed": true,
          "internalType": "uint256",
          "name": "receiver",
          "type": "uint256"
        }
      ],
      "name": "Pay",
      "type": "event"
    },
    {
      "anonymous": false,
      "inputs": [
        {
          "indexed": true,
          "internalType": "string",
          "name": "str",
          "type": "string"
        },
        {
          "indexed": true,
          "internalType": "uint256",
          "name": "player",
          "type": "uint256"
        }
      ],
      "name": "TreasureEvent",
      "type": "event"
    },
    {
      "anonymous": false,
      "inputs": [
        {
          "indexed": true,
          "internalType": "uint256",
          "name": "player",
          "type": "uint256"
        },
        {
          "indexed": true,
          "internalType": "uint256",
          "name": "Posistion",
          "type": "uint256"
        }
      ],
      "name": "Upgraded",
      "type": "event"
    },
    {
      "anonymous": false,
      "inputs": [
        {
          "indexed": true,
          "internalType": "uint256",
          "name": "dice1",
          "type": "uint256"
        },
        {
          "indexed": true,
          "internalType": "uint256",
          "name": "dice2",
          "type": "uint256"
        }
      ],
      "name": "roundCreated",
      "type": "event"
    },
    {
      "inputs": [
        {
          "internalType": "uint256",
          "name": "count",
          "type": "uint256"
        }
      ],
      "name": "buyOrUpgrade",
      "outputs": [],
      "stateMutability": "nonpayable",
      "type": "function"
    },
    {
      "inputs": [],
      "name": "createGame",
      "outputs": [],
      "stateMutability": "nonpayable",
      "type": "function"
    },
    {
      "inputs": [
        {
          "internalType": "uint256",
          "name": "count",
          "type": "uint256"
        }
      ],
      "name": "createTreasure",
      "outputs": [],
      "stateMutability": "nonpayable",
      "type": "function"
    },
    {
      "inputs": [
        {
          "internalType": "uint256",
          "name": "count",
          "type": "uint256"
        }
      ],
      "name": "currentPosition",
      "outputs": [
        {
          "internalType": "uint256",
          "name": "",
          "type": "uint256"
        }
      ],
      "stateMutability": "view",
      "type": "function"
    },
    {
      "inputs": [
        {
          "internalType": "uint256",
          "name": "count",
          "type": "uint256"
        }
      ],
      "name": "currentTile",
      "outputs": [
        {
          "components": [
            {
              "internalType": "bool",
              "name": "isOccupied",
              "type": "bool"
            },
            {
              "internalType": "uint256",
              "name": "value",
              "type": "uint256"
            },
            {
              "internalType": "uint256",
              "name": "upgrades",
              "type": "uint256"
            },
            {
              "internalType": "enum Monopoly.tileState",
              "name": "state",
              "type": "uint8"
            },
            {
              "internalType": "uint256",
              "name": "player",
              "type": "uint256"
            }
          ],
          "internalType": "struct Monopoly.Tiles",
          "name": "",
          "type": "tuple"
        }
      ],
      "stateMutability": "view",
      "type": "function"
    },
    {
      "inputs": [
        {
          "internalType": "address",
          "name": "",
          "type": "address"
        }
      ],
      "name": "games",
      "outputs": [
        {
          "components": [
            {
              "components": [
                {
                  "internalType": "bool",
                  "name": "isOccupied",
                  "type": "bool"
                },
                {
                  "internalType": "uint256",
                  "name": "value",
                  "type": "uint256"
                },
                {
                  "internalType": "uint256",
                  "name": "upgrades",
                  "type": "uint256"
                },
                {
                  "internalType": "enum Monopoly.tileState",
                  "name": "state",
                  "type": "uint8"
                },
                {
                  "internalType": "uint256",
                  "name": "player",
                  "type": "uint256"
                }
              ],
              "internalType": "struct Monopoly.Tiles[]",
              "name": "tiles",
              "type": "tuple[]"
            }
          ],
          "internalType": "struct Monopoly.Board",
          "name": "board",
          "type": "tuple"
        },
        {
          "internalType": "enum Monopoly.gameStatus",
          "name": "gamestatus",
          "type": "uint8"
        },
        {
          "internalType": "address",
          "name": "winner",
          "type": "address"
        }
      ],
      "stateMutability": "view",
      "type": "function"
    },
    {
      "inputs": [],
      "name": "getBoard",
      "outputs": [
        {
          "components": [
            {
              "components": [
                {
                  "internalType": "bool",
                  "name": "isOccupied",
                  "type": "bool"
                },
                {
                  "internalType": "uint256",
                  "name": "value",
                  "type": "uint256"
                },
                {
                  "internalType": "uint256",
                  "name": "upgrades",
                  "type": "uint256"
                },
                {
                  "internalType": "enum Monopoly.tileState",
                  "name": "state",
                  "type": "uint8"
                },
                {
                  "internalType": "uint256",
                  "name": "player",
                  "type": "uint256"
                }
              ],
              "internalType": "struct Monopoly.Tiles[]",
              "name": "tiles",
              "type": "tuple[]"
            }
          ],
          "internalType": "struct Monopoly.Board",
          "name": "",
          "type": "tuple"
        }
      ],
      "stateMutability": "view",
      "type": "function"
    },
    {
      "inputs": [],
      "name": "getGame",
      "outputs": [
        {
          "components": [
            {
              "components": [
                {
                  "components": [
                    {
                      "internalType": "bool",
                      "name": "isOccupied",
                      "type": "bool"
                    },
                    {
                      "internalType": "uint256",
                      "name": "value",
                      "type": "uint256"
                    },
                    {
                      "internalType": "uint256",
                      "name": "upgrades",
                      "type": "uint256"
                    },
                    {
                      "internalType": "enum Monopoly.tileState",
                      "name": "state",
                      "type": "uint8"
                    },
                    {
                      "internalType": "uint256",
                      "name": "player",
                      "type": "uint256"
                    }
                  ],
                  "internalType": "struct Monopoly.Tiles[]",
                  "name": "tiles",
                  "type": "tuple[]"
                }
              ],
              "internalType": "struct Monopoly.Board",
              "name": "board",
              "type": "tuple"
            },
            {
              "internalType": "enum Monopoly.gameStatus",
              "name": "gamestatus",
              "type": "uint8"
            },
            {
              "internalType": "address",
              "name": "winner",
              "type": "address"
            },
            {
              "components": [
                {
                  "internalType": "uint256",
                  "name": "playerNumber",
                  "type": "uint256"
                },
                {
                  "internalType": "uint256",
                  "name": "playerMoney",
                  "type": "uint256"
                },
                {
                  "internalType": "uint256",
                  "name": "position",
                  "type": "uint256"
                }
              ],
              "internalType": "struct Monopoly.Player[4]",
              "name": "players",
              "type": "tuple[4]"
            }
          ],
          "internalType": "struct Monopoly.Game",
          "name": "",
          "type": "tuple"
        }
      ],
      "stateMutability": "view",
      "type": "function"
    },
    {
      "inputs": [
        {
          "internalType": "uint256",
          "name": "count",
          "type": "uint256"
        }
      ],
      "name": "getMoney",
      "outputs": [
        {
          "internalType": "uint256",
          "name": "",
          "type": "uint256"
        }
      ],
      "stateMutability": "view",
      "type": "function"
    },
    {
      "inputs": [
        {
          "internalType": "uint256",
          "name": "count",
          "type": "uint256"
        }
      ],
      "name": "getPlayer",
      "outputs": [
        {
          "components": [
            {
              "internalType": "uint256",
              "name": "playerNumber",
              "type": "uint256"
            },
            {
              "internalType": "uint256",
              "name": "playerMoney",
              "type": "uint256"
            },
            {
              "internalType": "uint256",
              "name": "position",
              "type": "uint256"
            }
          ],
          "internalType": "struct Monopoly.Player",
          "name": "",
          "type": "tuple"
        }
      ],
      "stateMutability": "view",
      "type": "function"
    },
    {
      "inputs": [
        {
          "internalType": "address",
          "name": "addr",
          "type": "address"
        }
      ],
      "name": "isPlayer",
      "outputs": [
        {
          "internalType": "bool",
          "name": "",
          "type": "bool"
        }
      ],
      "stateMutability": "view",
      "type": "function"
    },
    {
      "inputs": [
        {
          "internalType": "uint256",
          "name": "count",
          "type": "uint256"
        }
      ],
      "name": "playRound",
      "outputs": [],
      "stateMutability": "nonpayable",
      "type": "function"
    },
    {
      "inputs": [
        {
          "internalType": "address",
          "name": "",
          "type": "address"
        }
      ],
      "name": "playerInfo",
      "outputs": [
        {
          "internalType": "uint256",
          "name": "",
          "type": "uint256"
        }
      ],
      "stateMutability": "view",
      "type": "function"
    },
    {
      "inputs": [
        {
          "internalType": "address",
          "name": "",
          "type": "address"
        }
      ],
      "name": "players",
      "outputs": [
        {
          "internalType": "uint256",
          "name": "playerNumber",
          "type": "uint256"
        },
        {
          "internalType": "uint256",
          "name": "playerMoney",
          "type": "uint256"
        },
        {
          "internalType": "uint256",
          "name": "position",
          "type": "uint256"
        }
      ],
      "stateMutability": "view",
      "type": "function"
    },
    {
      "inputs": [
        {
          "internalType": "uint256",
          "name": "",
          "type": "uint256"
        }
      ],
      "name": "rounds",
      "outputs": [
        {
          "internalType": "uint8",
          "name": "move",
          "type": "uint8"
        }
      ],
      "stateMutability": "view",
      "type": "function"
    }
  ],
  "bytecode": "0x6080806040523461002857600080546001600160a01b031916331790556115e6908161002e8239f35b600080fdfe6040608081526004908136101561001557600080fd5b600091823560e01c8063019e485e14610f0157806309c95e1014610ec85780631c48e45e14610e9e5780632610cb1e14610ad15780633262fd9a14610a9a5780633264a34b14610a4f5780634494fd9f146108b95780634b114691146108805780636832204c146105005780636e894dde146104955780637255d7291461022457806379131a19146101ab5780638c65c81f14610178578063e2eb41ff146101295763e55ae4e8146100c657600080fd5b3461012557602036600319011261012557610106610100606094600285610123956100ef6114d0565b5033845280602052359220016113ba565b506114ef565b915180926040809180518452602081015160208501520151910152565bf35b8280fd5b503461012557602036600319011261012557356001600160a01b038116908190036101255782829160609452600360205220805491600260018301549201549181519384526020840152820152f35b503461012557602036600319011261012557356005548110156101255760ff906020846005829652200154169051908152f35b5034610125576020366003190112610125576001600160a01b039080358281169081900361022057938391610203958252602052209160016101ec846112f0565b9301549181519485946060865260608601906111bc565b926102146020860160ff8316611206565b60081c16908301520390f35b8480fd5b503461012557826003193601126101255761023e3361136f565b61045c57338352602090808252600180848620019160ff19928381541690558185872001828482541617905583865b8787858584106103fe5750509150505b60288111156102cf5786867f5015efb66a3409b5288a6c22e699aa1d9dc360364d52aebcd12bdd679745f641606088600c8451918083528201526b19d85b594818dc99585d195960a21b84820152a151f35b338752818552858720838201908183116103eb57600a9180600019048311811515166103d8576102fe8461140d565b9089519361030b85611261565b8b8552898501910281528984018b8152610329606086019384611299565b61029a6080860190815284549094600160401b8210156103c55790610352918a820181556113f1565b9590956103b357511515918986541660ff80941617865551888601555160028501556003840191519060068210156103a057825489169116179055519083015561039b90611395565b61027d565b634e487b7160e01b8c526021875260248cfd5b634e487b7160e01b8d528c885260248dfd5b634e487b7160e01b8e526041895260248efd5b634e487b7160e01b8a526011855260248afd5b634e487b7160e01b895260118452602489fd5b610455948493619c4061043c86809561044e973386528c87528c6002978896879461042d8787878d20016113ba565b500155338852528520016113ba565b500155338c52868a528a8c20016113ba565b5055611395565b849061026d565b6020606492519162461bcd60e51b8352820152601460248201527319d85b5948185b1c9958591e481cdd185c9d195960621b6044820152fd5b5034610125576020366003190112610125576104f76104f1610123926104eb858760a098608083516104c681611261565b8281528260208201528285820152826060820152015233815283602052209135611517565b906113f1565b506112a5565b9151809261116e565b5034610125576020908160031936011261087c5780359161051f611545565b90600180831461080e575b60029283811461079a575b600381146106e3575b84811461067a575b60058114610619575b60061461055b57868651f35b865b60288111156105a85750505050506015825174596f75206761696e203430303024202f686f75736560581b815220600080516020611591833981519152848451a33880808080868651f35b338852848352836105bb82898b206113f1565b500154610fa0816000190481118215151661060657906105fa6106019392856105ef8b8a8f8f908e3382528d5220016113ba565b5001920282546113e4565b9055611395565b61055d565b634e487b7160e01b8a526011875260248afd5b3388528483528161062e87868a8c20016113ba565b500180549061271082018092116106065790600692915586600f89516e165bdd481ddbdb880c4c0b8c0c0c09608a1b8152206000805160206115918339815191528b8b51a3905061054f565b3388528483528161068f87868a8c20016113ba565b50018054613a9719810191908211610606575585601d88517f506179207363686f6f6c2074756974696f6e206f662031352e303030240000008152206000805160206115918339815191528a8a51a3610546565b875b6028811115610730575085601e88517f52657061697220796f757220686f757365732c20323530302f686f75736500008152206000805160206115918339815191528a8a51a361053e565b33895285845284610743828a8c206113f1565b5001546109c4816000190481118215151661078757906105fa6107829392866107778c8f8f8d918f8e3383525220016113ba565b500192028254611538565b6106e5565b634e487b7160e01b8b526011885260248bfd5b33885284835287846107b088828b8520016113ba565b500155338852848352816107c887868a8c20016113ba565b5001805490614e208201809211610606575585601088516f11dbc8189858dac81d1bc81cdd185c9d60821b8152206000805160206115918339815191528a8a51a3610535565b33875283825280610824866002898b20016113ba565b5001805490614e208201809211610869575584600f87516e165bdd481ddbdb880c8c0b8c0c0c09608a1b815220600080516020611591833981519152898951a361052a565b634e487b7160e01b895260118652602489fd5b8380fd5b503461012557602036600319011261012557356001600160a01b0381169081900361012557828291602094526002845220549051908152f35b50346101255782600319360112610125578151906108d682611245565b8251906108e282611213565b6060918281528352602092858482015285858201528285519161090483611245565b85885b60808110610a3557505001523385528083528385209484519261092984611245565b610932876112f0565b84526001968781015460ff8116918787019660039384811015610a225788528981019160018060a01b03809460081c1683528a519461097086611245565b6002869201918d89915b8b8310610a0657505050505088996109b382876109be949c9a9b9c019687526101e083519d8e92818452519201526102008d01906111bc565b9951908b0190611206565b51168783015251608087015b8584106109d75787870388f35b8483826109fa8c9486516040809180518452602081015160208501520151910152565b019201930192906109ca565b8d8491610a12876114ef565b8152019401910190928e9061097a565b634e487b7160e01b875260218852602487fd5b90919250610a416114d0565b818501520190858592610907565b503461012557826003193601126101255781610a9693610a839260608351610a7681611213565b52338252602052206112f0565b90519182916020835260208301906111bc565b0390f35b503461012557602036600319011261012557610ac7602093600284600194338452808852359220016113ba565b5001549051908152f35b50919034610e9a5760208060031936011261012557833533845284825260019060ff828587200154166003811015610e5a578203610e6d5733855285835260ff828587200154166003811015610e5a576002809114610e2f5733865286845260ff6003610b438789206104eb86611517565b500154166006811015610a2257610e005733865286845261029a87610b6d8789206104eb86611517565b500154148015610dca575b15610d9b5733865286845282610b928383888a20016113ba565b50015433875287855283610bab8789206104eb86611517565b50015411610d97573386528684528260ff610bcb8789206104eb86611517565b50541615151480610d74575b15610cd65733865286845282610bf28688206104eb85611517565b500154338752878552610c1884610c0e888a206104eb87611517565b50019182546113e4565b905533865286845280610c308688206104eb85611517565b5001805490848201809211610cc35797610cb4939291610cbe969798995533895280875281610c6384828b8d20016113ba565b500154837f81e711019a4e64c3413684fac757f9327c808a997cc5a904011fcdae91cea81a8b8b51a35b33895280875284610ca3898b206104eb86611517565b50015496338a5252868820016113ba565b5001918254611538565b905551f35b634e487b7160e01b885260118952602488fd5b90610cb491610cbe94959697338952808752610cf7888a206104eb85611517565b508560ff19825416179055338952808752610d1683838a8c20016113ba565b5054338a5281885281610d2e8a8c206104eb87611517565b50015533895280875281610d4684828b8d20016113ba565b500154837f3ccb2ab6980b218b1dd4974b07365cd90a191e170c611da46262fecc208bd6618b8b51a3610c8d565b50338652868452600581610d8d8789206104eb86611517565b5001541415610bd7565b8580fd5b845162461bcd60e51b815280880185905260096024820152686e6f7420796f75727360b81b6044820152606490fd5b5033865286845286610de18688206104eb85611517565b500154338752878552610df88383888a20016113ba565b505414610b78565b845162461bcd60e51b81528088018590526009602482015268139bc81cdd1c99595d60ba1b6044820152606490fd5b845162461bcd60e51b81528088018590526005602482015264195b99195960da1b6044820152606490fd5b634e487b7160e01b865260218752602486fd5b835162461bcd60e51b815280870184905260076024820152661cdd185c9d195960ca1b6044820152606490fd5b5080fd5b509134610ec5576020366003190112610ec55750610ebe60209235611517565b9051908152f35b80fd5b50346101255760203660031901126101255735916001600160a01b0383168303610ec55750610ef860209261136f565b90519015158152f35b509034610125576020908160031936011261087c57823591338552838152610f2a8286206112f0565b50610f33611545565b93610f3c611545565b93610f4785876113e4565b6028610f5b82610f5685611517565b6113e4565b1061114e57610f82903389528385526002610f7a8482898d20016113ba565b5001546113e4565b602719810190811161113b573388528284526002610fa48382888c20016113ba565b5001553387528183526001610fbe826002878b20016113ba565b5001805490614e2082018092116103eb57555b338752818352600160ff610fea868a206104eb85611517565b50541615151480611103575b806110c3575b61102c575b50505051917fc7768c238a1a23502afc31f58a4042222b8aff6c1580d7836dd23613ff6f03a58484a3f35b61109290338852828452876110646001610cb48460028a846110538289206104eb86611517565b500154963381528a8c5220016113ba565b905533885282845282600161107e878b206104eb85611517565b50015494338a52526104eb85892091611517565b500154907f1369343ebae961e006afa581954579f5715145c2db730b9dd4dae66302ec0174868451a3388080611001565b5033875281835260ff60036110dd868a206104eb85611517565b5001541660068110156110f05715610ffc565b634e487b7160e01b885260218352602488fd5b503387528183528161111a8589206104eb84611517565b500154338852828452611132826002878b20016113ba565b50541415610ff6565b634e487b7160e01b885260118352602488fd5b3388528284526111676002610c0e8482898d20016113ba565b9055610fd1565b8051151582526020810151602083015260408101516040830152606081015160068110156111a6576060830152608090810151910152565b634e487b7160e01b600052602160045260246000fd5b60209081604081850192519482815285518094520193019160005b8281106111e5575050505090565b909192938260a0826111fa600194895161116e565b019501939291016111d7565b9060038210156111a65752565b6020810190811067ffffffffffffffff82111761122f57604052565b634e487b7160e01b600052604160045260246000fd5b6080810190811067ffffffffffffffff82111761122f57604052565b60a0810190811067ffffffffffffffff82111761122f57604052565b6060810190811067ffffffffffffffff82111761122f57604052565b60068210156111a65752565b906040516112b281611261565b60806004829460ff8154161515845260018101546020850152600281015460408501526112e960ff60038301541660608601611299565b0154910152565b90604051916112fe83611213565b82815467ffffffffffffffff80821161122f576040519360059183831b603f01601f191686019081118682101761122f57604052828552600090815260208082208187015b8584106113535750505050505052565b8483600192611361856112a5565b815201920193019290611343565b6001600160a01b031660009081526002602052604090205461139057600090565b600190565b60001981146113a45760010190565b634e487b7160e01b600052601160045260246000fd5b9060048110156113ce576003020190600090565b634e487b7160e01b600052603260045260246000fd5b919082018092116113a457565b80548210156113ce576000526005602060002091020190600090565b806114185750600590565b6002811480156114c6575b80156114bc575b80156114b2575b80156114a8575b801561149e575b1561144a5750600490565b600481148015611494575b156114605750600190565b600581061580611488575b156114765750600390565b600a900661148357600290565b600090565b50600a8106151561146b565b5060268114611455565b506024811461143f565b5060168114611438565b5060218114611431565b506011811461142a565b5060078114611423565b604051906114dd8261127d565b60006040838281528260208201520152565b906040516114fc8161127d565b60406002829480548452600181015460208501520154910152565b611532600291336000526004602052826040600020016113ba565b50015490565b919082039182116113a457565b600660015461157d60405160208101904282523360601b60408201528360548201526054815261157481611245565b51902091611395565b60015506801561158a5790565b5060039056fe9966a66a4875f57383a5c6ad695793e21f83fd253f91d38bc1aaab1879c6eb28a2646970667358221220fcbed4a685d1bf0abe4643d7633df3b0fb0145d9cf7100b7fce8c198b936c12464736f6c63430008100033",
  "linkReferences": {},
  "deployedLinkReferences": {}
}